{
  "contractName": "InitializableModule",
  "abi": [
    {
      "constant": true,
      "inputs": [],
      "name": "nexus",
      "outputs": [
        {
          "internalType": "contract INexus",
          "name": "",
          "type": "address"
        }
      ],
      "payable": false,
      "stateMutability": "view",
      "type": "function"
    }
  ],
  "bytecode": "0x6080604052348015600f57600080fd5b5060938061001e6000396000f3fe6080604052348015600f57600080fd5b506004361060285760003560e01c8063a3f5c1d214602d575b600080fd5b6033604f565b604080516001600160a01b039092168252519081900360200190f35b6008546001600160a01b03168156fea265627a7a723158203c93ed5e12ee71acb2779114a7817cdfc862dd81a5cadddb86d0a36b422fa81b64736f6c63430005100032",
  "source": "pragma solidity 0.5.16;\n\nimport { InitializableModuleKeys } from \"./InitializableModuleKeys.sol\";\nimport { INexus } from \"../interfaces/INexus.sol\";\n\n/**\n * @title   InitializableModule\n * @author  Stability Labs Pty. Ltd.\n * @dev     Subscribes to module updates from a given publisher and reads from its registry.\n *          Contract is used for upgradable proxy contracts.\n */\ncontract InitializableModule is InitializableModuleKeys {\n\n    INexus public nexus;\n\n    /**\n     * @dev Modifier to allow function calls only from the Governor.\n     */\n    modifier onlyGovernor() {\n        require(msg.sender == _governor(), \"Only governor can execute\");\n        _;\n    }\n\n    /**\n     * @dev Modifier to allow function calls only from the Governance.\n     *      Governance is either Governor address or Governance address.\n     */\n    modifier onlyGovernance() {\n        require(\n            msg.sender == _governor() || msg.sender == _governance(),\n            \"Only governance can execute\"\n        );\n        _;\n    }\n\n    /**\n     * @dev Modifier to allow function calls only from the ProxyAdmin.\n     */\n    modifier onlyProxyAdmin() {\n        require(\n            msg.sender == _proxyAdmin(), \"Only ProxyAdmin can execute\"\n        );\n        _;\n    }\n\n    /**\n     * @dev Modifier to allow function calls only from the Manager.\n     */\n    modifier onlyManager() {\n        require(msg.sender == _manager(), \"Only manager can execute\");\n        _;\n    }\n\n    /**\n     * @dev Initialization function for upgradable proxy contracts\n     * @param _nexus Nexus contract address\n     */\n    function _initialize(address _nexus) internal {\n        require(_nexus != address(0), \"Nexus address is zero\");\n        nexus = INexus(_nexus);\n        InitializableModuleKeys._initialize();\n    }\n\n    /**\n     * @dev Returns Governor address from the Nexus\n     * @return Address of Governor Contract\n     */\n    function _governor() internal view returns (address) {\n        return nexus.governor();\n    }\n\n    /**\n     * @dev Returns Governance Module address from the Nexus\n     * @return Address of the Governance (Phase 2)\n     */\n    function _governance() internal view returns (address) {\n        return nexus.getModule(KEY_GOVERNANCE);\n    }\n\n    /**\n     * @dev Return Staking Module address from the Nexus\n     * @return Address of the Staking Module contract\n     */\n    function _staking() internal view returns (address) {\n        return nexus.getModule(KEY_STAKING);\n    }\n\n    /**\n     * @dev Return ProxyAdmin Module address from the Nexus\n     * @return Address of the ProxyAdmin Module contract\n     */\n    function _proxyAdmin() internal view returns (address) {\n        return nexus.getModule(KEY_PROXY_ADMIN);\n    }\n\n    /**\n     * @dev Return MetaToken Module address from the Nexus\n     * @return Address of the MetaToken Module contract\n     */\n    function _metaToken() internal view returns (address) {\n        return nexus.getModule(KEY_META_TOKEN);\n    }\n\n    /**\n     * @dev Return OracleHub Module address from the Nexus\n     * @return Address of the OracleHub Module contract\n     */\n    function _oracleHub() internal view returns (address) {\n        return nexus.getModule(KEY_ORACLE_HUB);\n    }\n\n    /**\n     * @dev Return Manager Module address from the Nexus\n     * @return Address of the Manager Module contract\n     */\n    function _manager() internal view returns (address) {\n        return nexus.getModule(KEY_MANAGER);\n    }\n\n    /**\n     * @dev Return SavingsManager Module address from the Nexus\n     * @return Address of the SavingsManager Module contract\n     */\n    function _savingsManager() internal view returns (address) {\n        return nexus.getModule(KEY_SAVINGS_MANAGER);\n    }\n\n    /**\n     * @dev Return Recollateraliser Module address from the Nexus\n     * @return  Address of the Recollateraliser Module contract (Phase 2)\n     */\n    function _recollateraliser() internal view returns (address) {\n        return nexus.getModule(KEY_RECOLLATERALISER);\n    }\n}\n",
  "sourcePath": "@mstable/protocol/contracts/shared/InitializableModule.sol",
  "compiler": {
    "name": "solc",
    "version": "0.5.16+commit.9c3226ce.Emscripten.clang"
  },
  "schemaVersion": "3.2.5",
  "updatedAt": "2020-12-21T14:39:11.715Z",
  "devdoc": {
    "author": "Stability Labs Pty. Ltd.",
    "details": "Subscribes to module updates from a given publisher and reads from its registry.         Contract is used for upgradable proxy contracts.",
    "methods": {},
    "title": "InitializableModule"
  },
  "userdoc": {
    "methods": {}
  }
}