{
  "contractName": "InitializableGovernableWhitelist",
  "abi": [
    {
      "anonymous": false,
      "inputs": [
        {
          "indexed": true,
          "internalType": "address",
          "name": "_address",
          "type": "address"
        }
      ],
      "name": "Whitelisted",
      "type": "event"
    },
    {
      "constant": true,
      "inputs": [],
      "name": "nexus",
      "outputs": [
        {
          "internalType": "contract INexus",
          "name": "",
          "type": "address"
        }
      ],
      "payable": false,
      "stateMutability": "view",
      "type": "function"
    },
    {
      "constant": true,
      "inputs": [
        {
          "internalType": "address",
          "name": "",
          "type": "address"
        }
      ],
      "name": "whitelist",
      "outputs": [
        {
          "internalType": "bool",
          "name": "",
          "type": "bool"
        }
      ],
      "payable": false,
      "stateMutability": "view",
      "type": "function"
    }
  ],
  "bytecode": "0x608060405234801561001057600080fd5b5060e98061001f6000396000f3fe6080604052348015600f57600080fd5b506004361060325760003560e01c80639b19251a146037578063a3f5c1d214606e575b600080fd5b605a60048036036020811015604b57600080fd5b50356001600160a01b03166090565b604080519115158252519081900360200190f35b607460a5565b604080516001600160a01b039092168252519081900360200190f35b60096020526000908152604090205460ff1681565b6008546001600160a01b03168156fea265627a7a7231582013c119eb312eda908520b933b7f1f74c201ab7da5a0dbdc0eb58de2c81fae62164736f6c63430005100032",
  "source": "pragma solidity 0.5.16;\n\nimport { InitializableModule } from \"../shared/InitializableModule.sol\";\n\n/**\n * @title   InitializableGovernableWhitelist\n * @author  Stability Labs Pty. Ltd.\n * @notice  Contract to store whitelisted address. The onlyWhitelisted() modifier should be used\n *          to allow the function calls only from the whitelisted addresses.\n * @dev     Implementing contracts are responsible for adding their own add and remove methods\n *          as the original purpose of this whitelist is for read optimisation.\n */\ncontract InitializableGovernableWhitelist is InitializableModule {\n\n    event Whitelisted(address indexed _address);\n\n    mapping(address => bool) public whitelist;\n\n    /**\n     * @dev Modifier to allow function calls only from the whitelisted address.\n     */\n    modifier onlyWhitelisted() {\n        require(whitelist[msg.sender], \"Not a whitelisted address\");\n        _;\n    }\n\n    /**\n     * @dev Initialization function for upgradable proxy contracts\n     * @param _nexus Nexus contract address\n     * @param _whitelisted Array of whitelisted addresses.\n     */\n    function _initialize(\n        address _nexus,\n        address[] memory _whitelisted\n    )\n        internal\n    {\n        InitializableModule._initialize(_nexus);\n\n        require(_whitelisted.length > 0, \"Empty whitelist array\");\n\n        for(uint256 i = 0; i < _whitelisted.length; i++) {\n            _addWhitelist(_whitelisted[i]);\n        }\n    }\n\n    /**\n     * @dev Adds a new whitelist address\n     * @param _address Address to add in whitelist\n     */\n    function _addWhitelist(address _address) internal {\n        require(_address != address(0), \"Address is zero\");\n        require(! whitelist[_address], \"Already whitelisted\");\n\n        whitelist[_address] = true;\n\n        emit Whitelisted(_address);\n    }\n\n}",
  "sourcePath": "@mstable/protocol/contracts/governance/InitializableGovernableWhitelist.sol",
  "compiler": {
    "name": "solc",
    "version": "0.5.16+commit.9c3226ce.Emscripten.clang"
  },
  "schemaVersion": "3.2.5",
  "updatedAt": "2020-12-21T14:39:11.709Z",
  "devdoc": {
    "author": "Stability Labs Pty. Ltd.",
    "details": "Implementing contracts are responsible for adding their own add and remove methods         as the original purpose of this whitelist is for read optimisation.",
    "methods": {},
    "title": "InitializableGovernableWhitelist"
  },
  "userdoc": {
    "methods": {},
    "notice": "Contract to store whitelisted address. The onlyWhitelisted() modifier should be used         to allow the function calls only from the whitelisted addresses."
  }
}