{
  "contractName": "MerkleDrop",
  "abi": [
    {
      "anonymous": false,
      "inputs": [
        {
          "indexed": false,
          "internalType": "address",
          "name": "claimant",
          "type": "address"
        },
        {
          "indexed": false,
          "internalType": "uint256",
          "name": "week",
          "type": "uint256"
        },
        {
          "indexed": false,
          "internalType": "uint256",
          "name": "balance",
          "type": "uint256"
        }
      ],
      "name": "Claimed",
      "type": "event"
    },
    {
      "anonymous": false,
      "inputs": [
        {
          "indexed": true,
          "internalType": "address",
          "name": "_address",
          "type": "address"
        }
      ],
      "name": "RemovedFunder",
      "type": "event"
    },
    {
      "anonymous": false,
      "inputs": [
        {
          "indexed": false,
          "internalType": "uint256",
          "name": "tranche",
          "type": "uint256"
        },
        {
          "indexed": false,
          "internalType": "bytes32",
          "name": "merkleRoot",
          "type": "bytes32"
        },
        {
          "indexed": false,
          "internalType": "uint256",
          "name": "totalAmount",
          "type": "uint256"
        }
      ],
      "name": "TrancheAdded",
      "type": "event"
    },
    {
      "anonymous": false,
      "inputs": [
        {
          "indexed": false,
          "internalType": "uint256",
          "name": "tranche",
          "type": "uint256"
        }
      ],
      "name": "TrancheExpired",
      "type": "event"
    },
    {
      "anonymous": false,
      "inputs": [
        {
          "indexed": true,
          "internalType": "address",
          "name": "_address",
          "type": "address"
        }
      ],
      "name": "Whitelisted",
      "type": "event"
    },
    {
      "constant": true,
      "inputs": [
        {
          "internalType": "uint256",
          "name": "",
          "type": "uint256"
        },
        {
          "internalType": "address",
          "name": "",
          "type": "address"
        }
      ],
      "name": "claimed",
      "outputs": [
        {
          "internalType": "bool",
          "name": "",
          "type": "bool"
        }
      ],
      "payable": false,
      "stateMutability": "view",
      "type": "function"
    },
    {
      "constant": true,
      "inputs": [
        {
          "internalType": "uint256",
          "name": "",
          "type": "uint256"
        }
      ],
      "name": "merkleRoots",
      "outputs": [
        {
          "internalType": "bytes32",
          "name": "",
          "type": "bytes32"
        }
      ],
      "payable": false,
      "stateMutability": "view",
      "type": "function"
    },
    {
      "constant": true,
      "inputs": [],
      "name": "nexus",
      "outputs": [
        {
          "internalType": "contract INexus",
          "name": "",
          "type": "address"
        }
      ],
      "payable": false,
      "stateMutability": "view",
      "type": "function"
    },
    {
      "constant": true,
      "inputs": [],
      "name": "token",
      "outputs": [
        {
          "internalType": "contract IERC20",
          "name": "",
          "type": "address"
        }
      ],
      "payable": false,
      "stateMutability": "view",
      "type": "function"
    },
    {
      "constant": true,
      "inputs": [
        {
          "internalType": "address",
          "name": "",
          "type": "address"
        }
      ],
      "name": "whitelist",
      "outputs": [
        {
          "internalType": "bool",
          "name": "",
          "type": "bool"
        }
      ],
      "payable": false,
      "stateMutability": "view",
      "type": "function"
    },
    {
      "constant": false,
      "inputs": [
        {
          "internalType": "address",
          "name": "_nexus",
          "type": "address"
        },
        {
          "internalType": "address[]",
          "name": "_funders",
          "type": "address[]"
        },
        {
          "internalType": "contract IERC20",
          "name": "_token",
          "type": "address"
        }
      ],
      "name": "initialize",
      "outputs": [],
      "payable": false,
      "stateMutability": "nonpayable",
      "type": "function"
    },
    {
      "constant": false,
      "inputs": [
        {
          "internalType": "bytes32",
          "name": "_merkleRoot",
          "type": "bytes32"
        },
        {
          "internalType": "uint256",
          "name": "_totalAllocation",
          "type": "uint256"
        }
      ],
      "name": "seedNewAllocations",
      "outputs": [
        {
          "internalType": "uint256",
          "name": "trancheId",
          "type": "uint256"
        }
      ],
      "payable": false,
      "stateMutability": "nonpayable",
      "type": "function"
    },
    {
      "constant": false,
      "inputs": [
        {
          "internalType": "uint256",
          "name": "_trancheId",
          "type": "uint256"
        }
      ],
      "name": "expireTranche",
      "outputs": [],
      "payable": false,
      "stateMutability": "nonpayable",
      "type": "function"
    },
    {
      "constant": false,
      "inputs": [
        {
          "internalType": "address",
          "name": "_address",
          "type": "address"
        }
      ],
      "name": "addFunder",
      "outputs": [],
      "payable": false,
      "stateMutability": "nonpayable",
      "type": "function"
    },
    {
      "constant": false,
      "inputs": [
        {
          "internalType": "address",
          "name": "_address",
          "type": "address"
        }
      ],
      "name": "removeFunder",
      "outputs": [],
      "payable": false,
      "stateMutability": "nonpayable",
      "type": "function"
    },
    {
      "constant": false,
      "inputs": [
        {
          "internalType": "address",
          "name": "_liquidityProvider",
          "type": "address"
        },
        {
          "internalType": "uint256",
          "name": "_tranche",
          "type": "uint256"
        },
        {
          "internalType": "uint256",
          "name": "_balance",
          "type": "uint256"
        },
        {
          "internalType": "bytes32[]",
          "name": "_merkleProof",
          "type": "bytes32[]"
        }
      ],
      "name": "claimTranche",
      "outputs": [],
      "payable": false,
      "stateMutability": "nonpayable",
      "type": "function"
    },
    {
      "constant": true,
      "inputs": [
        {
          "internalType": "address",
          "name": "_liquidityProvider",
          "type": "address"
        },
        {
          "internalType": "uint256",
          "name": "_tranche",
          "type": "uint256"
        },
        {
          "internalType": "uint256",
          "name": "_balance",
          "type": "uint256"
        },
        {
          "internalType": "bytes32[]",
          "name": "_merkleProof",
          "type": "bytes32[]"
        }
      ],
      "name": "verifyClaim",
      "outputs": [
        {
          "internalType": "bool",
          "name": "valid",
          "type": "bool"
        }
      ],
      "payable": false,
      "stateMutability": "view",
      "type": "function"
    }
  ],
  "bytecode": "0x608060405234801561001057600080fd5b50611797806100206000396000f3fe608060405234801561001057600080fd5b50600436106100b45760003560e01c8063cd54e72c11610071578063cd54e72c14610152578063d5efd20a14610165578063dc5b68a614610178578063dcd18dd41461018b578063eb0d07f51461019e578063fc0c546a146101b1576100b4565b8063120aa877146100b95780631bbe9d8c146100e257806365ef53b1146100f757806371c5ecb1146101175780639b19251a1461012a578063a3f5c1d21461013d575b600080fd5b6100cc6100c7366004610ea0565b6101b9565b6040516100d9919061152b565b60405180910390f35b6100f56100f0366004610d17565b6101d9565b005b61010a610105366004610e48565b610226565b6040516100d99190611539565b61010a610125366004610e82565b6102e0565b6100cc610138366004610d17565b6102f2565b610145610307565b6040516100d99190611547565b6100f5610160366004610dbd565b610316565b6100f5610173366004610e82565b610332565b6100f5610186366004610d53565b6103ad565b6100f5610199366004610d17565b61048c565b6100cc6101ac366004610dbd565b61056b565b610145610584565b603f60209081526000928352604080842090915290825290205460ff1681565b6101e1610593565b6001600160a01b0316336001600160a01b03161461021a5760405162461bcd60e51b8152600401610211906115b5565b60405180910390fd5b61022381610615565b50565b336000908152603c602052604081205460ff166102555760405162461bcd60e51b8152600401610211906115d5565b603d54610273906001600160a01b031633308563ffffffff6106c016565b50604080546000818152603e602052829020849055905461029b90600163ffffffff61071b16565b6040908155517f5c8770684b8f82e9ade880fb05ccfb53c969170cd40e9746a3703f241c9023ec906102d290839086908690611655565b60405180910390a192915050565b603e6020526000908152604090205481565b603c6020526000908152604090205460ff1681565b603b546001600160a01b031681565b61032284848484610749565b61032c8483610844565b50505050565b336000908152603c602052604090205460ff166103615760405162461bcd60e51b8152600401610211906115d5565b6000818152603e602052604080822091909155517fcc071cbd9ae50a4c78d1153b76bd2d46ba8d4c7662842718ec3de1d67a144daf906103a2908390611539565b60405180910390a150565b600054610100900460ff16806103c657506103c6610888565b806103d4575060005460ff16155b6103f05760405162461bcd60e51b8152600401610211906115e5565b600054610100900460ff1615801561041b576000805460ff1961ff0019909116610100171660011790555b6104588585858080602002602001604051908101604052809392919081815260200183836020028082843760009201919091525061088e92505050565b603d80546001600160a01b0319166001600160a01b0384161790558015610485576000805461ff00191690555b5050505050565b610494610593565b6001600160a01b0316336001600160a01b0316146104c45760405162461bcd60e51b8152600401610211906115b5565b6001600160a01b0381166104ea5760405162461bcd60e51b815260040161021190611625565b6001600160a01b0381166000908152603c602052604090205460ff166105225760405162461bcd60e51b815260040161021190611595565b6001600160a01b0381166000818152603c6020526040808220805460ff19169055517f716dbcc83324f9116e347cd75111c8f466ede05562baa322dabd8368834f22a79190a250565b6000610579858585856108ed565b90505b949350505050565b603d546001600160a01b031681565b603b546040805163030d028960e21b815290516000926001600160a01b031691630c340a24916004808301926020929190829003018186803b1580156105d857600080fd5b505afa1580156105ec573d6000803e3d6000fd5b505050506040513d601f19601f820116820180604052506106109190810190610d35565b905090565b6001600160a01b03811661063b5760405162461bcd60e51b815260040161021190611625565b6001600160a01b0381166000908152603c602052604090205460ff16156106745760405162461bcd60e51b8152600401610211906115f5565b6001600160a01b0381166000818152603c6020526040808220805460ff19166001179055517faab7954e9d246b167ef88aeddad35209ca2489d95a8aeb59e288d9b19fae5a549190a250565b60405161032c9085906323b872dd60e01b906106e4908790879087906024016114cd565b60408051601f198184030181529190526020810180516001600160e01b03166001600160e01b031990931692909217909152610943565b6000828201838110156107405760405162461bcd60e51b815260040161021190611585565b90505b92915050565b604054831061076a5760405162461bcd60e51b815260040161021190611565565b6000838152603f602090815260408083206001600160a01b038816845290915290205460ff16156107ad5760405162461bcd60e51b815260040161021190611615565b6107b9848484846108ed565b6107d55760405162461bcd60e51b815260040161021190611575565b6000838152603f602090815260408083206001600160a01b038816845290915290819020805460ff19166001179055517f987d620f307ff6b94d58743cb7a7509f24071586a77759b77c2d4e29f75a2f9a9061083690869086908690611510565b60405180910390a150505050565b801561086c57603d54610867906001600160a01b0316838363ffffffff610a2816565b610884565b60405162461bcd60e51b815260040161021190611605565b5050565b303b1590565b61089782610a4a565b60008151116108b85760405162461bcd60e51b8152600401610211906115c5565b60005b81518110156108e8576108e08282815181106108d357fe5b6020026020010151610615565b6001016108bb565b505050565b6000808584604051602001610903929190611427565b60405160208183030381529060405280519060200120905061093983603e60008881526020019081526020016000205483610a93565b9695505050505050565b610955826001600160a01b0316610b32565b6109715760405162461bcd60e51b815260040161021190611645565b60006060836001600160a01b03168360405161098d9190611469565b6000604051808303816000865af19150503d80600081146109ca576040519150601f19603f3d011682016040523d82523d6000602084013e6109cf565b606091505b5091509150816109f15760405162461bcd60e51b8152600401610211906115a5565b80511561032c5780806020019051610a0c9190810190610e2a565b61032c5760405162461bcd60e51b815260040161021190611635565b6040516108e890849063a9059cbb60e01b906106e490869086906024016114f5565b6001600160a01b038116610a705760405162461bcd60e51b815260040161021190611555565b603b80546001600160a01b0319166001600160a01b038316179055610223610b6b565b600081815b8551811015610b25576000868281518110610aaf57fe5b60200260200101519050808311610af0578281604051602001610ad392919061144d565b604051602081830303815290604052805190602001209250610b1c565b8083604051602001610b0392919061144d565b6040516020818303038152906040528051906020012092505b50600101610a98565b50831490505b9392505050565b6000813f7fc5d2460186f7233c927e7db2dcc703c0e500b653ca82273b7bfad8045d85a47081811480159061057c575050151592915050565b604051610b77906114ac565b604051908190038120603355610b8c90611480565b604051908190038120603455610ba1906114b7565b604051908190038120603555610bb6906114a1565b604051908190038120603655610bcb90611496565b604051908190038120603755610be09061148b565b604051908190038120603855610bf5906114c2565b604051908190038120603955610c0a90611475565b604051908190039020603a55565b803561074381611725565b805161074381611725565b60008083601f840112610c4057600080fd5b50813567ffffffffffffffff811115610c5857600080fd5b602083019150836020820283011115610c7057600080fd5b9250929050565b600082601f830112610c8857600080fd5b8135610c9b610c968261168a565b611663565b91508181835260208401935060208101905083856020840282011115610cc057600080fd5b60005b83811015610cec5781610cd68882610d01565b8452506020928301929190910190600101610cc3565b5050505092915050565b805161074381611739565b803561074381611742565b80356107438161174b565b600060208284031215610d2957600080fd5b600061057c8484610c18565b600060208284031215610d4757600080fd5b600061057c8484610c23565b60008060008060608587031215610d6957600080fd5b6000610d758787610c18565b945050602085013567ffffffffffffffff811115610d9257600080fd5b610d9e87828801610c2e565b93509350506040610db187828801610d0c565b91505092959194509250565b60008060008060808587031215610dd357600080fd5b6000610ddf8787610c18565b9450506020610df087828801610d01565b9350506040610e0187828801610d01565b925050606085013567ffffffffffffffff811115610e1e57600080fd5b610db187828801610c77565b600060208284031215610e3c57600080fd5b600061057c8484610cf6565b60008060408385031215610e5b57600080fd5b6000610e678585610d01565b9250506020610e7885828601610d01565b9150509250929050565b600060208284031215610e9457600080fd5b600061057c8484610d01565b60008060408385031215610eb357600080fd5b6000610ebf8585610d01565b9250506020610e7885828601610c18565b610ed9816116bd565b82525050565b610ed9610eeb826116bd565b611713565b610ed9816116c8565b610ed9816116cd565b610ed9610f0e826116cd565b6116cd565b6000610f1e826116ab565b610f2881856116af565b9350610f388185602086016116e7565b9290920192915050565b610ed9816116d0565b6000610f586015836116b4565b744e657875732061646472657373206973207a65726f60581b815260200192915050565b6000610f89600e836116af565b6d29b0bb34b733b9a6b0b730b3b2b960911b8152600e0192915050565b6000610fb3601c836116b4565b7f5765656b2063616e6e6f7420626520696e207468652066757475726500000000815260200192915050565b6000610fec6007836116af565b665374616b696e6760c81b815260070192915050565b600061100f6016836116b4565b7524b731b7b93932b1ba1036b2b935b63290383937b7b360511b815260200192915050565b6000611041601b836116b4565b7f536166654d6174683a206164646974696f6e206f766572666c6f770000000000815260200192915050565b600061107a6010836116af565b6f2932b1b7b63630ba32b930b634b9b2b960811b815260100192915050565b60006110a6601a836116b4565b7f41646472657373206973206e6f742077686974656c6973746564000000000000815260200192915050565b60006110df6020836116b4565b7f5361666545524332303a206c6f772d6c6576656c2063616c6c206661696c6564815260200192915050565b60006111186019836116b4565b7f4f6e6c7920676f7665726e6f722063616e206578656375746500000000000000815260200192915050565b60006111516007836116af565b6626b0b730b3b2b960c91b815260070192915050565b60006111746015836116b4565b74456d7074792077686974656c69737420617272617960581b815260200192915050565b60006111a56019836116b4565b7f4e6f7420612077686974656c6973746564206164647265737300000000000000815260200192915050565b60006111de6009836116af565b6827b930b1b632a43ab160b91b815260090192915050565b6000611203600a836116af565b69476f7665726e616e636560b01b8152600a0192915050565b6000611229600a836116af565b69283937bc3ca0b236b4b760b11b8152600a0192915050565b600061124f602e836116b4565b7f436f6e747261637420696e7374616e63652068617320616c726561647920626581526d195b881a5b9a5d1a585b1a5e995960921b602082015260400192915050565b600061129f6013836116b4565b72105b1c9958591e481dda1a5d195b1a5cdd1959606a1b815260200192915050565b60006112ce603d836116b4565b7f4e6f2062616c616e636520776f756c64206265207472616e736665727265642081527f2d206e6f7420676f696e6720746f20776173746520796f757220676173000000602082015260400192915050565b600061132d6016836116b4565b751314081a185cc8185b1c9958591e4818db185a5b595960521b815260200192915050565b600061135f600f836116b4565b6e41646472657373206973207a65726f60881b815260200192915050565b600061138a602a836116b4565b7f5361666545524332303a204552433230206f7065726174696f6e20646964206e8152691bdd081cdd58d8d9595960b21b602082015260400192915050565b60006113d66009836116af565b6826b2ba30aa37b5b2b760b91b815260090192915050565b60006113fb601f836116b4565b7f5361666545524332303a2063616c6c20746f206e6f6e2d636f6e747261637400815260200192915050565b60006114338285610edf565b6014820191506114438284610f02565b5060200192915050565b60006114598285610f02565b6020820191506114438284610f02565b6000610b2b8284610f13565b600061074382610f7c565b600061074382610fdf565b60006107438261106d565b600061074382611144565b6000610743826111d1565b6000610743826111f6565b60006107438261121c565b6000610743826113c9565b606081016114db8286610ed0565b6114e86020830185610ed0565b61057c6040830184610ef9565b604081016115038285610ed0565b610b2b6020830184610ef9565b6060810161151e8286610ed0565b6114e86020830185610ef9565b602081016107438284610ef0565b602081016107438284610ef9565b602081016107438284610f42565b6020808252810161074381610f4b565b6020808252810161074381610fa6565b6020808252810161074381611002565b6020808252810161074381611034565b6020808252810161074381611099565b60208082528101610743816110d2565b602080825281016107438161110b565b6020808252810161074381611167565b6020808252810161074381611198565b6020808252810161074381611242565b6020808252810161074381611292565b60208082528101610743816112c1565b6020808252810161074381611320565b6020808252810161074381611352565b602080825281016107438161137d565b60208082528101610743816113ee565b6060810161151e8286610ef9565b60405181810167ffffffffffffffff8111828210171561168257600080fd5b604052919050565b600067ffffffffffffffff8211156116a157600080fd5b5060209081020190565b5190565b919050565b90815260200190565b6000610743826116db565b151590565b90565b6000610743826116bd565b6001600160a01b031690565b60005b838110156117025781810151838201526020016116ea565b8381111561032c5750506000910152565b60006107438260006107438260601b90565b61172e816116bd565b811461022357600080fd5b61172e816116c8565b61172e816116cd565b61172e816116d056fea365627a7a723158200e693553e75fa354bdf7a51bd98709dd65468ab0c674a05193aa2bda2ddafc816c6578706572696d656e74616cf564736f6c63430005100040",
  "source": "pragma solidity 0.5.16;\npragma experimental ABIEncoderV2;\n\nimport { MerkleProof } from \"@openzeppelin/contracts/cryptography/MerkleProof.sol\";\nimport { IERC20 } from \"@openzeppelin/contracts/token/ERC20/IERC20.sol\";\nimport { SafeERC20 } from \"@openzeppelin/contracts/token/ERC20/SafeERC20.sol\";\nimport { SafeMath } from \"@openzeppelin/contracts/math/SafeMath.sol\";\n\nimport { Initializable } from \"@openzeppelin/upgrades/contracts/Initializable.sol\";\nimport { InitializableGovernableWhitelist } from \"@mstable/protocol/contracts/governance/InitializableGovernableWhitelist.sol\";\n\ncontract MerkleDrop is Initializable, InitializableGovernableWhitelist {\n\n    using SafeERC20 for IERC20;\n    using SafeMath for uint256;\n\n    event Claimed(address claimant, uint256 week, uint256 balance);\n    event TrancheAdded(uint256 tranche, bytes32 merkleRoot, uint256 totalAmount);\n    event TrancheExpired(uint256 tranche);\n    event RemovedFunder(address indexed _address);\n\n    IERC20 public token;\n\n    mapping(uint256 => bytes32) public merkleRoots;\n    mapping(uint256 => mapping(address => bool)) public claimed;\n    uint256 tranches;\n\n    function initialize(\n        address _nexus,\n        address[] calldata _funders,\n        IERC20 _token\n    )\n        external\n        initializer\n    {\n        InitializableGovernableWhitelist._initialize(_nexus, _funders);\n        token = _token;\n    }\n\n    /***************************************\n                    ADMIN\n    ****************************************/\n\n    function seedNewAllocations(bytes32 _merkleRoot, uint256 _totalAllocation)\n        public\n        onlyWhitelisted\n        returns (uint256 trancheId)\n    {\n        token.safeTransferFrom(msg.sender, address(this), _totalAllocation);\n\n        trancheId = tranches;\n        merkleRoots[trancheId] = _merkleRoot;\n\n        tranches = tranches.add(1);\n\n        emit TrancheAdded(trancheId, _merkleRoot, _totalAllocation);\n    }\n\n    function expireTranche(uint256 _trancheId)\n        public\n        onlyWhitelisted\n    {\n        merkleRoots[_trancheId] = bytes32(0);\n\n        emit TrancheExpired(_trancheId);\n    }\n\n    /**\n     * @dev Allows the mStable governance to add a new Funder\n     * @param _address  Funder to add\n     */\n    function addFunder(address _address)\n        external\n        onlyGovernor\n    {\n        _addWhitelist(_address);\n    }\n\n    /**\n     * @dev Allows the mStable governance to remove inactive Funder\n     * @param _address  Funder to remove\n     */\n    function removeFunder(address _address)\n        external\n        onlyGovernor\n    {\n        require(_address != address(0), \"Address is zero\");\n        require(whitelist[_address], \"Address is not whitelisted\");\n\n        whitelist[_address] = false;\n\n        emit RemovedFunder(_address);\n    }\n\n\n    /***************************************\n                  CLAIMING\n    ****************************************/\n\n\n    function claimTranche(\n        address _liquidityProvider,\n        uint256 _tranche,\n        uint256 _balance,\n        bytes32[] memory _merkleProof\n    )\n        public\n    {\n        _claimTranche(_liquidityProvider, _tranche, _balance, _merkleProof);\n        _disburse(_liquidityProvider, _balance);\n    }\n\n\n    function verifyClaim(\n        address _liquidityProvider,\n        uint256 _tranche,\n        uint256 _balance,\n        bytes32[] memory _merkleProof\n    )\n        public\n        view\n        returns (bool valid)\n    {\n        return _verifyClaim(_liquidityProvider, _tranche, _balance, _merkleProof);\n    }\n\n\n    /***************************************\n              CLAIMING - INTERNAL\n    ****************************************/\n\n\n    function _claimTranche(\n        address _liquidityProvider,\n        uint256 _tranche,\n        uint256 _balance,\n        bytes32[] memory _merkleProof\n    )\n        private\n    {\n        require(_tranche < tranches, \"Week cannot be in the future\");\n\n        require(!claimed[_tranche][_liquidityProvider], \"LP has already claimed\");\n        require(_verifyClaim(_liquidityProvider, _tranche, _balance, _merkleProof), \"Incorrect merkle proof\");\n\n        claimed[_tranche][_liquidityProvider] = true;\n\n        emit Claimed(_liquidityProvider, _tranche, _balance);\n    }\n\n\n    function _verifyClaim(\n        address _liquidityProvider,\n        uint256 _tranche,\n        uint256 _balance,\n        bytes32[] memory _merkleProof\n    )\n        private\n        view\n        returns (bool valid)\n    {\n        bytes32 leaf = keccak256(abi.encodePacked(_liquidityProvider, _balance));\n        return MerkleProof.verify(_merkleProof, merkleRoots[_tranche], leaf);\n    }\n\n\n    function _disburse(address _liquidityProvider, uint256 _balance) private {\n        if (_balance > 0) {\n            token.safeTransfer(_liquidityProvider, _balance);\n        } else {\n            revert(\"No balance would be transferred - not going to waste your gas\");\n        }\n    }\n}\n",
  "sourcePath": "/home/mx/Dev/curve/prime_dao/1bal-new/bal-distribution/contracts/MerkleDrop.sol",
  "compiler": {
    "name": "solc",
    "version": "0.5.16+commit.9c3226ce.Emscripten.clang"
  },
  "schemaVersion": "3.2.5",
  "updatedAt": "2020-12-21T14:41:29.164Z",
  "networkType": "ethereum",
  "devdoc": {
    "methods": {
      "addFunder(address)": {
        "details": "Allows the mStable governance to add a new Funder",
        "params": {
          "_address": "Funder to add"
        }
      },
      "removeFunder(address)": {
        "details": "Allows the mStable governance to remove inactive Funder",
        "params": {
          "_address": "Funder to remove"
        }
      }
    }
  },
  "userdoc": {
    "methods": {
      "claimTranche(address,uint256,uint256,bytes32[])": {
        "notice": "************************************* CLAIMING***************************************"
      },
      "seedNewAllocations(bytes32,uint256)": {
        "notice": "************************************* ADMIN***************************************"
      }
    }
  }
}